{
  "contractName": "MarketPlace",
  "abi": [
    {
      "constant": true,
      "inputs": [
        {
          "name": "",
          "type": "uint256"
        }
      ],
      "name": "products",
      "outputs": [
        {
          "name": "id",
          "type": "uint256"
        },
        {
          "name": "price",
          "type": "uint256"
        },
        {
          "name": "owner",
          "type": "address"
        },
        {
          "name": "name",
          "type": "string"
        },
        {
          "name": "isPurchased",
          "type": "bool"
        }
      ],
      "payable": false,
      "stateMutability": "view",
      "type": "function",
      "signature": "0x7acc0b20"
    },
    {
      "constant": true,
      "inputs": [],
      "name": "productCount",
      "outputs": [
        {
          "name": "",
          "type": "uint256"
        }
      ],
      "payable": false,
      "stateMutability": "view",
      "type": "function",
      "signature": "0xe0f6ef87"
    },
    {
      "inputs": [],
      "payable": false,
      "stateMutability": "nonpayable",
      "type": "constructor",
      "signature": "constructor"
    },
    {
      "constant": false,
      "inputs": [
        {
          "name": "_name",
          "type": "string"
        },
        {
          "name": "_price",
          "type": "uint256"
        }
      ],
      "name": "createProduct",
      "outputs": [],
      "payable": false,
      "stateMutability": "nonpayable",
      "type": "function",
      "signature": "0xe9300c6c"
    },
    {
      "constant": false,
      "inputs": [
        {
          "name": "_id",
          "type": "uint256"
        }
      ],
      "name": "buyProduct",
      "outputs": [],
      "payable": true,
      "stateMutability": "payable",
      "type": "function",
      "signature": "0x8642269e"
    }
  ],
  "bytecode": "0x608060405234801561001057600080fd5b5060008081905550610a3a806100276000396000f3fe608060405260043610610062576000357c0100000000000000000000000000000000000000000000000000000000900463ffffffff1680637acc0b20146100675780638642269e14610167578063e0f6ef8714610195578063e9300c6c146101c0575b600080fd5b34801561007357600080fd5b506100a06004803603602081101561008a57600080fd5b8101908080359060200190929190505050610292565b604051808681526020018581526020018473ffffffffffffffffffffffffffffffffffffffff1673ffffffffffffffffffffffffffffffffffffffff1681526020018060200183151515158152602001828103825284818151815260200191508051906020019080838360005b8381101561012857808201518184015260208101905061010d565b50505050905090810190601f1680156101555780820380516001836020036101000a031916815260200191505b50965050505050505060405180910390f35b6101936004803603602081101561017d57600080fd5b810190808035906020019092919050505061038d565b005b3480156101a157600080fd5b506101aa610814565b6040518082815260200191505060405180910390f35b3480156101cc57600080fd5b50610290600480360360408110156101e357600080fd5b810190808035906020019064010000000081111561020057600080fd5b82018360208201111561021257600080fd5b8035906020019184600183028401116401000000008311171561023457600080fd5b91908080601f016020809104026020016040519081016040528093929190818152602001838380828437600081840152601f19601f8201169050808301925050505050505091929192908035906020019092919050505061081a565b005b60016020528060005260406000206000915090508060000154908060010154908060020160009054906101000a900473ffffffffffffffffffffffffffffffffffffffff1690806003018054600181600116156101000203166002900480601f0160208091040260200160405190810160405280929190818152602001828054600181600116156101000203166002900480156103705780601f1061034557610100808354040283529160200191610370565b820191906000526020600020905b81548152906001019060200180831161035357829003601f168201915b5050505050908060040160009054906101000a900460ff16905085565b610395610921565b6001600083815260200190815260200160002060a0604051908101604052908160008201548152602001600182015481526020016002820160009054906101000a900473ffffffffffffffffffffffffffffffffffffffff1673ffffffffffffffffffffffffffffffffffffffff1673ffffffffffffffffffffffffffffffffffffffff168152602001600382018054600181600116156101000203166002900480601f0160208091040260200160405190810160405280929190818152602001828054600181600116156101000203166002900480156104b75780601f1061048c576101008083540402835291602001916104b7565b820191906000526020600020905b81548152906001019060200180831161049a57829003601f168201915b505050505081526020016004820160009054906101000a900460ff1615151515815250509050806040015173ffffffffffffffffffffffffffffffffffffffff163373ffffffffffffffffffffffffffffffffffffffff16141515156105ab576040517f08c379a00000000000000000000000000000000000000000000000000000000081526004018080602001828103825260288152602001807f596f752063616e2774206275792077686963682075206861766520616c72656181526020017f6479206f776e656400000000000000000000000000000000000000000000000081525060400191505060405180910390fd5b80602001513410151515610627576040517f08c379a000000000000000000000000000000000000000000000000000000000815260040180806020018281038252601a8152602001807f54686572652069736e277420656e6f7567682062616c616e636500000000000081525060200191505060405180910390fd5b60001515816080015115151415156106cd576040517f08c379a00000000000000000000000000000000000000000000000000000000081526004018080602001828103825260298152602001807f5468652070726f647563742068617320616c726561647920626f75676874206281526020017f7920736f6d656f6e65000000000000000000000000000000000000000000000081525060400191505060405180910390fd5b806040015173ffffffffffffffffffffffffffffffffffffffff166108fc349081150290604051600060405180830381858888f19350505050158015610717573d6000803e3d6000fd5b5033816040019073ffffffffffffffffffffffffffffffffffffffff16908173ffffffffffffffffffffffffffffffffffffffff168152505060018160800190151590811515815250508060016000848152602001908152602001600020600082015181600001556020820151816001015560408201518160020160006101000a81548173ffffffffffffffffffffffffffffffffffffffff021916908373ffffffffffffffffffffffffffffffffffffffff16021790555060608201518160030190805190602001906107ec929190610969565b5060808201518160040160006101000a81548160ff0219169083151502179055509050505050565b60005481565b600080815480929190600101919050555060a06040519081016040528060005481526020018281526020013373ffffffffffffffffffffffffffffffffffffffff168152602001838152602001600015158152506001600080548152602001908152602001600020600082015181600001556020820151816001015560408201518160020160006101000a81548173ffffffffffffffffffffffffffffffffffffffff021916908373ffffffffffffffffffffffffffffffffffffffff16021790555060608201518160030190805190602001906108f9929190610969565b5060808201518160040160006101000a81548160ff0219169083151502179055509050505050565b60a0604051908101604052806000815260200160008152602001600073ffffffffffffffffffffffffffffffffffffffff168152602001606081526020016000151581525090565b828054600181600116156101000203166002900490600052602060002090601f016020900481019282601f106109aa57805160ff19168380011785556109d8565b828001600101855582156109d8579182015b828111156109d75782518255916020019190600101906109bc565b5b5090506109e591906109e9565b5090565b610a0b91905b80821115610a075760008160009055506001016109ef565b5090565b9056fea165627a7a72305820264ed4fa2502b6d025ac372c1303991bb7240d3f86364fc87ef4c1199ffc30380029",
  "source": "pragma solidity ^0.5.0;\r\n\r\ncontract MarketPlace{\r\n    uint public productCount;\r\n    struct Product{\r\n        uint id;\r\n        uint price;\r\n        address payable owner;\r\n        string name;\r\n        bool isPurchased;\r\n    }\r\n    mapping(uint => Product) public products;\r\n    constructor() public {\r\n        productCount = 0;\r\n    }\r\n    function createProduct(string memory _name,uint _price) public {\r\n        productCount++;\r\n        products[productCount] = Product(productCount,_price,msg.sender,_name,false);\r\n    }\r\n    function buyProduct(uint _id) payable public{\r\n        Product memory product = products[_id];\r\n        require(msg.sender!=product.owner,\"You can't buy which u have already owned\");\r\n        require(msg.value>=product.price,\"There isn't enough balance\");\r\n        require(product.isPurchased==false,\"The product has already bought by someone\");\r\n        product.owner.transfer(msg.value);\r\n        product.owner = msg.sender;\r\n        product.isPurchased = true;\r\n        products[_id] = product;\r\n        return; \r\n    }\r\n}",
  "sourcePath": "E:/web3.0/marketplace/src/contracts/MarketPlace.sol",
  "compiler": {
    "name": "solc",
    "version": "0.5.0+commit.1d4f565a.Emscripten.clang"
  },
  "schemaVersion": "3.0.2",
  "updatedAt": "2022-01-26T14:18:00.614Z",
  "devdoc": {
    "methods": {}
  },
  "userdoc": {
    "methods": {}
  }
}